{
  "_format": "hh-sol-artifact-1",
  "contractName": "V1",
  "sourceName": "contracts/ContractV1.sol",
  "abi": [
    {
      "inputs": [],
      "name": "increase",
      "outputs": [],
      "stateMutability": "nonpayable",
      "type": "function"
    },
    {
      "inputs": [
        {
          "internalType": "uint256",
          "name": "_num",
          "type": "uint256"
        }
      ],
      "name": "initialValue",
      "outputs": [],
      "stateMutability": "nonpayable",
      "type": "function"
    },
    {
      "inputs": [],
      "name": "number",
      "outputs": [
        {
          "internalType": "uint256",
          "name": "",
          "type": "uint256"
        }
      ],
      "stateMutability": "view",
      "type": "function"
    }
  ],
  "bytecode": "0x608060405234801561001057600080fd5b506101e0806100206000396000f3fe608060405234801561001057600080fd5b50600436106100415760003560e01c80638381f58a14610046578063e8927fbc14610064578063f8d4ca881461006e575b600080fd5b61004e61008a565b60405161005b91906100ce565b60405180910390f35b61006c610090565b005b6100886004803603810190610083919061011a565b6100ab565b005b60005481565b60016000808282546100a29190610176565b92505081905550565b8060008190555050565b6000819050919050565b6100c8816100b5565b82525050565b60006020820190506100e360008301846100bf565b92915050565b600080fd5b6100f7816100b5565b811461010257600080fd5b50565b600081359050610114816100ee565b92915050565b6000602082840312156101305761012f6100e9565b5b600061013e84828501610105565b91505092915050565b7f4e487b7100000000000000000000000000000000000000000000000000000000600052601160045260246000fd5b6000610181826100b5565b915061018c836100b5565b92508282019050808211156101a4576101a3610147565b5b9291505056fea2646970667358221220fc87b749896ce459ee65569bb91df5548e0c2d32ebfd960ba2631d9ce92f65ec64736f6c63430008180033",
  "linkReferences": {},
  "deployedLinkReferences": {}
}