{
  "_format": "hh-sol-artifact-1",
  "contractName": "V2",
  "sourceName": "contracts/ContractV2.sol",
  "abi": [
    {
      "inputs": [],
      "name": "decrease",
      "outputs": [],
      "stateMutability": "nonpayable",
      "type": "function"
    },
    {
      "inputs": [],
      "name": "increase",
      "outputs": [],
      "stateMutability": "nonpayable",
      "type": "function"
    },
    {
      "inputs": [
        {
          "internalType": "uint256",
          "name": "_num",
          "type": "uint256"
        }
      ],
      "name": "initialValue",
      "outputs": [],
      "stateMutability": "nonpayable",
      "type": "function"
    },
    {
      "inputs": [],
      "name": "number",
      "outputs": [
        {
          "internalType": "uint256",
          "name": "",
          "type": "uint256"
        }
      ],
      "stateMutability": "view",
      "type": "function"
    }
  ],
  "bytecode": "0x608060405234801561001057600080fd5b50610244806100206000396000f3fe608060405234801561001057600080fd5b506004361061004c5760003560e01c80638381f58a14610051578063d732d9551461006f578063e8927fbc14610079578063f8d4ca8814610083575b600080fd5b61005961009f565b60405161006691906100fe565b60405180910390f35b6100776100a5565b005b6100816100c0565b005b61009d6004803603810190610098919061014a565b6100db565b005b60005481565b60016000808282546100b791906101a6565b92505081905550565b60016000808282546100d291906101da565b92505081905550565b8060008190555050565b6000819050919050565b6100f8816100e5565b82525050565b600060208201905061011360008301846100ef565b92915050565b600080fd5b610127816100e5565b811461013257600080fd5b50565b6000813590506101448161011e565b92915050565b6000602082840312156101605761015f610119565b5b600061016e84828501610135565b91505092915050565b7f4e487b7100000000000000000000000000000000000000000000000000000000600052601160045260246000fd5b60006101b1826100e5565b91506101bc836100e5565b92508282039050818111156101d4576101d3610177565b5b92915050565b60006101e5826100e5565b91506101f0836100e5565b925082820190508082111561020857610207610177565b5b9291505056fea2646970667358221220d000a840af55fc736d4d60b6d08499a462ade250189cfe4337e4e2825571d01864736f6c63430008180033",
  "linkReferences": {},
  "deployedLinkReferences": {}
}